:100000000C943E000C9448000C9448000C9448005A
:100010000C9448000C9448000C9448000C94480040
:100020000C9448000C9448000C9448000C94480030
:100030000C9448000C9448000C9448000C94480020
:100040000C9448000C9448000C9448000C94480010
:100050000C9448000C9448000C9448000C94480000
:100060000C9448000C94480052005D006200660049
:100070006A006E00720076005600590011241FBEFF
:10008000CFEFD8E0DEBFCDBF0E947B000C9498007C
:100090000C9400008A30910540F4FC01EC5CFF4FA9
:1000A0000C9492001BB881E085B908951BB815B86F
:1000B000089580E68BB915B8089584EE8BB981E078
:1000C00085B9089580E98BB915B8089580EC8BB98E
:1000D00015B8089584E68BB915B8089588E48BB9EE
:1000E00015B8089588E08BB915B8089580EE8BB9DE
:1000F00081E085B908958AB18C6F8AB9209AC0E0F1
:10010000D0E0CE010E944A002FEF81EE94E0215012
:1001100080409040E1F700C000002196CA30D10530
:1001200081F7EDCFEE0FFF1F0590F491E02D0994BC
:04013000F894FFCF71
:00000001FF
